{
  "contractName": "ERC1155Base",
  "abi": [
    {
      "inputs": [
        {
          "internalType": "string",
          "name": "contractURI",
          "type": "string"
        },
        {
          "internalType": "string",
          "name": "tokenURIPrefix",
          "type": "string"
        }
      ],
      "payable": false,
      "stateMutability": "nonpayable",
      "type": "constructor"
    },
    {
      "anonymous": false,
      "inputs": [
        {
          "indexed": true,
          "internalType": "address",
          "name": "_owner",
          "type": "address"
        },
        {
          "indexed": true,
          "internalType": "address",
          "name": "_operator",
          "type": "address"
        },
        {
          "indexed": false,
          "internalType": "bool",
          "name": "_approved",
          "type": "bool"
        }
      ],
      "name": "ApprovalForAll",
      "type": "event"
    },
    {
      "anonymous": false,
      "inputs": [
        {
          "indexed": true,
          "internalType": "address",
          "name": "previousOwner",
          "type": "address"
        },
        {
          "indexed": true,
          "internalType": "address",
          "name": "newOwner",
          "type": "address"
        }
      ],
      "name": "OwnershipTransferred",
      "type": "event"
    },
    {
      "anonymous": false,
      "inputs": [
        {
          "indexed": false,
          "internalType": "uint256",
          "name": "tokenId",
          "type": "uint256"
        },
        {
          "indexed": false,
          "internalType": "address[]",
          "name": "recipients",
          "type": "address[]"
        },
        {
          "indexed": false,
          "internalType": "uint256[]",
          "name": "bps",
          "type": "uint256[]"
        }
      ],
      "name": "SecondarySaleFees",
      "type": "event"
    },
    {
      "anonymous": false,
      "inputs": [
        {
          "indexed": true,
          "internalType": "address",
          "name": "_operator",
          "type": "address"
        },
        {
          "indexed": true,
          "internalType": "address",
          "name": "_from",
          "type": "address"
        },
        {
          "indexed": true,
          "internalType": "address",
          "name": "_to",
          "type": "address"
        },
        {
          "indexed": false,
          "internalType": "uint256[]",
          "name": "_ids",
          "type": "uint256[]"
        },
        {
          "indexed": false,
          "internalType": "uint256[]",
          "name": "_values",
          "type": "uint256[]"
        }
      ],
      "name": "TransferBatch",
      "type": "event"
    },
    {
      "anonymous": false,
      "inputs": [
        {
          "indexed": true,
          "internalType": "address",
          "name": "_operator",
          "type": "address"
        },
        {
          "indexed": true,
          "internalType": "address",
          "name": "_from",
          "type": "address"
        },
        {
          "indexed": true,
          "internalType": "address",
          "name": "_to",
          "type": "address"
        },
        {
          "indexed": false,
          "internalType": "uint256",
          "name": "_id",
          "type": "uint256"
        },
        {
          "indexed": false,
          "internalType": "uint256",
          "name": "_value",
          "type": "uint256"
        }
      ],
      "name": "TransferSingle",
      "type": "event"
    },
    {
      "anonymous": false,
      "inputs": [
        {
          "indexed": false,
          "internalType": "string",
          "name": "_value",
          "type": "string"
        },
        {
          "indexed": true,
          "internalType": "uint256",
          "name": "_id",
          "type": "uint256"
        }
      ],
      "name": "URI",
      "type": "event"
    },
    {
      "constant": true,
      "inputs": [
        {
          "internalType": "address",
          "name": "_owner",
          "type": "address"
        },
        {
          "internalType": "uint256",
          "name": "_id",
          "type": "uint256"
        }
      ],
      "name": "balanceOf",
      "outputs": [
        {
          "internalType": "uint256",
          "name": "",
          "type": "uint256"
        }
      ],
      "payable": false,
      "stateMutability": "view",
      "type": "function"
    },
    {
      "constant": true,
      "inputs": [
        {
          "internalType": "address[]",
          "name": "_owners",
          "type": "address[]"
        },
        {
          "internalType": "uint256[]",
          "name": "_ids",
          "type": "uint256[]"
        }
      ],
      "name": "balanceOfBatch",
      "outputs": [
        {
          "internalType": "uint256[]",
          "name": "",
          "type": "uint256[]"
        }
      ],
      "payable": false,
      "stateMutability": "view",
      "type": "function"
    },
    {
      "constant": true,
      "inputs": [],
      "name": "contractURI",
      "outputs": [
        {
          "internalType": "string",
          "name": "",
          "type": "string"
        }
      ],
      "payable": false,
      "stateMutability": "view",
      "type": "function"
    },
    {
      "constant": true,
      "inputs": [
        {
          "internalType": "uint256",
          "name": "",
          "type": "uint256"
        }
      ],
      "name": "creators",
      "outputs": [
        {
          "internalType": "address",
          "name": "",
          "type": "address"
        }
      ],
      "payable": false,
      "stateMutability": "view",
      "type": "function"
    },
    {
      "constant": true,
      "inputs": [
        {
          "internalType": "uint256",
          "name": "",
          "type": "uint256"
        },
        {
          "internalType": "uint256",
          "name": "",
          "type": "uint256"
        }
      ],
      "name": "fees",
      "outputs": [
        {
          "internalType": "address payable",
          "name": "recipient",
          "type": "address"
        },
        {
          "internalType": "uint256",
          "name": "value",
          "type": "uint256"
        }
      ],
      "payable": false,
      "stateMutability": "view",
      "type": "function"
    },
    {
      "constant": true,
      "inputs": [
        {
          "internalType": "address",
          "name": "_owner",
          "type": "address"
        },
        {
          "internalType": "address",
          "name": "_operator",
          "type": "address"
        }
      ],
      "name": "isApprovedForAll",
      "outputs": [
        {
          "internalType": "bool",
          "name": "",
          "type": "bool"
        }
      ],
      "payable": false,
      "stateMutability": "view",
      "type": "function"
    },
    {
      "constant": true,
      "inputs": [],
      "name": "isOwner",
      "outputs": [
        {
          "internalType": "bool",
          "name": "",
          "type": "bool"
        }
      ],
      "payable": false,
      "stateMutability": "view",
      "type": "function"
    },
    {
      "constant": true,
      "inputs": [],
      "name": "owner",
      "outputs": [
        {
          "internalType": "address",
          "name": "",
          "type": "address"
        }
      ],
      "payable": false,
      "stateMutability": "view",
      "type": "function"
    },
    {
      "constant": false,
      "inputs": [],
      "name": "renounceOwnership",
      "outputs": [],
      "payable": false,
      "stateMutability": "nonpayable",
      "type": "function"
    },
    {
      "constant": false,
      "inputs": [
        {
          "internalType": "address",
          "name": "_from",
          "type": "address"
        },
        {
          "internalType": "address",
          "name": "_to",
          "type": "address"
        },
        {
          "internalType": "uint256[]",
          "name": "_ids",
          "type": "uint256[]"
        },
        {
          "internalType": "uint256[]",
          "name": "_values",
          "type": "uint256[]"
        },
        {
          "internalType": "bytes",
          "name": "_data",
          "type": "bytes"
        }
      ],
      "name": "safeBatchTransferFrom",
      "outputs": [],
      "payable": false,
      "stateMutability": "nonpayable",
      "type": "function"
    },
    {
      "constant": false,
      "inputs": [
        {
          "internalType": "address",
          "name": "_from",
          "type": "address"
        },
        {
          "internalType": "address",
          "name": "_to",
          "type": "address"
        },
        {
          "internalType": "uint256",
          "name": "_id",
          "type": "uint256"
        },
        {
          "internalType": "uint256",
          "name": "_value",
          "type": "uint256"
        },
        {
          "internalType": "bytes",
          "name": "_data",
          "type": "bytes"
        }
      ],
      "name": "safeTransferFrom",
      "outputs": [],
      "payable": false,
      "stateMutability": "nonpayable",
      "type": "function"
    },
    {
      "constant": false,
      "inputs": [
        {
          "internalType": "address",
          "name": "_operator",
          "type": "address"
        },
        {
          "internalType": "bool",
          "name": "_approved",
          "type": "bool"
        }
      ],
      "name": "setApprovalForAll",
      "outputs": [],
      "payable": false,
      "stateMutability": "nonpayable",
      "type": "function"
    },
    {
      "constant": true,
      "inputs": [
        {
          "internalType": "bytes4",
          "name": "interfaceId",
          "type": "bytes4"
        }
      ],
      "name": "supportsInterface",
      "outputs": [
        {
          "internalType": "bool",
          "name": "",
          "type": "bool"
        }
      ],
      "payable": false,
      "stateMutability": "view",
      "type": "function"
    },
    {
      "constant": true,
      "inputs": [],
      "name": "tokenURIPrefix",
      "outputs": [
        {
          "internalType": "string",
          "name": "",
          "type": "string"
        }
      ],
      "payable": false,
      "stateMutability": "view",
      "type": "function"
    },
    {
      "constant": false,
      "inputs": [
        {
          "internalType": "address",
          "name": "newOwner",
          "type": "address"
        }
      ],
      "name": "transferOwnership",
      "outputs": [],
      "payable": false,
      "stateMutability": "nonpayable",
      "type": "function"
    },
    {
      "constant": true,
      "inputs": [
        {
          "internalType": "uint256",
          "name": "_id",
          "type": "uint256"
        }
      ],
      "name": "uri",
      "outputs": [
        {
          "internalType": "string",
          "name": "",
          "type": "string"
        }
      ],
      "payable": false,
      "stateMutability": "view",
      "type": "function"
    },
    {
      "constant": true,
      "inputs": [
        {
          "internalType": "uint256",
          "name": "id",
          "type": "uint256"
        }
      ],
      "name": "getFeeRecipients",
      "outputs": [
        {
          "internalType": "address payable[]",
          "name": "",
          "type": "address[]"
        }
      ],
      "payable": false,
      "stateMutability": "view",
      "type": "function"
    },
    {
      "constant": true,
      "inputs": [
        {
          "internalType": "uint256",
          "name": "id",
          "type": "uint256"
        }
      ],
      "name": "getFeeBps",
      "outputs": [
        {
          "internalType": "uint256[]",
          "name": "",
          "type": "uint256[]"
        }
      ],
      "payable": false,
      "stateMutability": "view",
      "type": "function"
    },
    {
      "constant": false,
      "inputs": [
        {
          "internalType": "address",
          "name": "_owner",
          "type": "address"
        },
        {
          "internalType": "uint256",
          "name": "_id",
          "type": "uint256"
        },
        {
          "internalType": "uint256",
          "name": "_value",
          "type": "uint256"
        }
      ],
      "name": "burn",
      "outputs": [],
      "payable": false,
      "stateMutability": "nonpayable",
      "type": "function"
    },
    {
      "constant": false,
      "inputs": [
        {
          "internalType": "string",
          "name": "tokenURIPrefix",
          "type": "string"
        }
      ],
      "name": "setTokenURIPrefix",
      "outputs": [],
      "payable": false,
      "stateMutability": "nonpayable",
      "type": "function"
    },
    {
      "constant": false,
      "inputs": [
        {
          "internalType": "string",
          "name": "contractURI",
          "type": "string"
        }
      ],
      "name": "setContractURI",
      "outputs": [],
      "payable": false,
      "stateMutability": "nonpayable",
      "type": "function"
    }
  ],
  "bytecode": "0x60806040523480156200001157600080fd5b506040516200376138038062003761833981810160405262000037919081019062000373565b818180620000526301ffc9a760e01b6200018860201b60201c565b6200006a63b779958460e01b6200018860201b60201c565b60006200007c6200026060201b60201c565b905080600160006101000a81548173ffffffffffffffffffffffffffffffffffffffff021916908373ffffffffffffffffffffffffffffffffffffffff1602179055508073ffffffffffffffffffffffffffffffffffffffff16600073ffffffffffffffffffffffffffffffffffffffff167f8be0079c531659141344cd1fd0a4f28419497f9722a3daafe3b4186f6b6457e060405160405180910390a35080600290805190602001906200013392919062000268565b50505080600490805190602001906200014e92919062000268565b506200016763e8a3d48560e01b6200018860201b60201c565b506200018063d9b67a2660e01b6200018860201b60201c565b5050620004ec565b63ffffffff60e01b817bffffffffffffffffffffffffffffffffffffffffffffffffffffffff19161415620001f4576040517f08c379a0000000000000000000000000000000000000000000000000000000008152600401620001eb9062000428565b60405180910390fd5b6001600080837bffffffffffffffffffffffffffffffffffffffffffffffffffffffff19167bffffffffffffffffffffffffffffffffffffffffffffffffffffffff1916815260200190815260200160002060006101000a81548160ff02191690831515021790555050565b600033905090565b828054600181600116156101000203166002900490600052602060002090601f016020900481019282601f10620002ab57805160ff1916838001178555620002dc565b82800160010185558215620002dc579182015b82811115620002db578251825591602001919060010190620002be565b5b509050620002eb9190620002ef565b5090565b6200031491905b8082111562000310576000816000905550600101620002f6565b5090565b90565b600082601f8301126200032957600080fd5b8151620003406200033a8262000478565b6200044a565b915080825260208301602083018583830111156200035d57600080fd5b6200036a838284620004b6565b50505092915050565b600080604083850312156200038757600080fd5b600083015167ffffffffffffffff811115620003a257600080fd5b620003b08582860162000317565b925050602083015167ffffffffffffffff811115620003ce57600080fd5b620003dc8582860162000317565b9150509250929050565b6000620003f5601c83620004a5565b91507f4552433136353a20696e76616c696420696e74657266616365206964000000006000830152602082019050919050565b600060208201905081810360008301526200044381620003e6565b9050919050565b6000604051905081810181811067ffffffffffffffff821117156200046e57600080fd5b8060405250919050565b600067ffffffffffffffff8211156200049057600080fd5b601f19601f8301169050602081019050919050565b600082825260208201905092915050565b60005b83811015620004d6578082015181840152602081019050620004b9565b83811115620004e6576000848401525b50505050565b61326580620004fc6000396000f3fe608060405234801561001057600080fd5b50600436106101365760003560e01c8063938e3d7b116100b8578063cd53d08e1161007c578063cd53d08e14610360578063e8a3d48514610390578063e985e9c5146103ae578063f242432a146103de578063f2fde38b146103fa578063f5298aca1461041657610136565b8063938e3d7b146102be57806399e0dd7c146102da578063a22cb465146102f6578063b9c4d9fb14610312578063c0ac99831461034257610136565b80634e1273f4116100ff5780634e1273f4146102175780636308f1cd14610247578063715018a6146102785780638da5cb5b146102825780638f32d59b146102a057610136565b8062fdd58e1461013b57806301ffc9a71461016b5780630e89341c1461019b5780630ebd4c7f146101cb5780632eb2c2d6146101fb575b600080fd5b6101556004803603610150919081019061250c565b610432565b6040516101629190612f9b565b60405180910390f35b6101856004803603610180919081019061260c565b61048d565b6040516101929190612e1c565b60405180910390f35b6101b560048036036101b0919081019061269f565b6104f4565b6040516101c29190612e59565b60405180910390f35b6101e560048036036101e0919081019061269f565b610506565b6040516101f29190612dfa565b60405180910390f35b61021560048036036102109190810190612372565b610660565b005b610231600480360361022c9190810190612597565b610b5e565b60405161023e9190612dfa565b60405180910390f35b610261600480360361025c91908101906126c8565b610c6d565b60405161026f929190612cb2565b60405180910390f35b610280610ccb565b005b61028a610dd3565b6040516102979190612c97565b60405180910390f35b6102a8610dfd565b6040516102b59190612e1c565b60405180910390f35b6102d860048036036102d3919081019061265e565b610e5c565b005b6102f460048036036102ef919081019061265e565b610eaf565b005b610310600480360361030b91908101906124d0565b610f02565b005b61032c6004803603610327919081019061269f565b610fff565b6040516103399190612d9d565b60405180910390f35b61034a611187565b6040516103579190612e37565b60405180910390f35b61037a6004803603610375919081019061269f565b611225565b6040516103879190612c97565b60405180910390f35b610398611258565b6040516103a59190612e37565b60405180910390f35b6103c860048036036103c39190810190612336565b6112f6565b6040516103d59190612e1c565b60405180910390f35b6103f860048036036103f3919081019061243e565b61138a565b005b610414600480360361040f919081019061230d565b61176b565b005b610430600480360361042b9190810190612548565b6117be565b005b60006005600083815260200190815260200160002060008473ffffffffffffffffffffffffffffffffffffffff1673ffffffffffffffffffffffffffffffffffffffff16815260200190815260200160002054905092915050565b6000806000837bffffffffffffffffffffffffffffffffffffffffffffffffffffffff19167bffffffffffffffffffffffffffffffffffffffffffffffffffffffff1916815260200190815260200160002060009054906101000a900460ff169050919050565b60606104ff826119ff565b9050919050565b60608060086000848152602001908152602001600020805480602002602001604051908101604052809291908181526020016000905b828210156105ce57838290600052602060002090600202016040518060400160405290816000820160009054906101000a900473ffffffffffffffffffffffffffffffffffffffff1673ffffffffffffffffffffffffffffffffffffffff1673ffffffffffffffffffffffffffffffffffffffff1681526020016001820154815250508152602001906001019061053c565b505050509050606081516040519080825280602002602001820160405280156106065781602001602082028038833980820191505090505b50905060008090505b82518110156106555782818151811061062457fe5b60200260200101516020015182828151811061063c57fe5b602002602001018181525050808060010191505061060f565b508092505050919050565b600073ffffffffffffffffffffffffffffffffffffffff168773ffffffffffffffffffffffffffffffffffffffff1614156106d0576040517f08c379a00000000000000000000000000000000000000000000000000000000081526004016106c790612e9b565b60405180910390fd5b838390508686905014610718576040517f08c379a000000000000000000000000000000000000000000000000000000000815260040161070f90612f3b565b60405180910390fd5b3373ffffffffffffffffffffffffffffffffffffffff168873ffffffffffffffffffffffffffffffffffffffff1614806107df575060011515600660008a73ffffffffffffffffffffffffffffffffffffffff1673ffffffffffffffffffffffffffffffffffffffff16815260200190815260200160002060003373ffffffffffffffffffffffffffffffffffffffff1673ffffffffffffffffffffffffffffffffffffffff16815260200190815260200160002060009054906101000a900460ff161515145b61081e576040517f08c379a000000000000000000000000000000000000000000000000000000000815260040161081590612edb565b60405180910390fd5b60008090505b868690508110156109d857600087878381811061083d57fe5b905060200201359050600086868481811061085457fe5b9050602002013590506108c0816005600085815260200190815260200160002060008e73ffffffffffffffffffffffffffffffffffffffff1673ffffffffffffffffffffffffffffffffffffffff16815260200190815260200160002054611b6090919063ffffffff16565b6005600084815260200190815260200160002060008d73ffffffffffffffffffffffffffffffffffffffff1673ffffffffffffffffffffffffffffffffffffffff168152602001908152602001600020819055506109776005600084815260200190815260200160002060008c73ffffffffffffffffffffffffffffffffffffffff1673ffffffffffffffffffffffffffffffffffffffff1681526020019081526020016000205482611b7790919063ffffffff16565b6005600084815260200190815260200160002060008c73ffffffffffffffffffffffffffffffffffffffff1673ffffffffffffffffffffffffffffffffffffffff168152602001908152602001600020819055505050806001019050610824565b508673ffffffffffffffffffffffffffffffffffffffff168873ffffffffffffffffffffffffffffffffffffffff163373ffffffffffffffffffffffffffffffffffffffff167f4a39dc06d4c0dbc64b70af90fd698a233a518aa5d07e595d983b8c0526c8f7fb89898989604051610a539493929190612dbf565b60405180910390a4610a7a8773ffffffffffffffffffffffffffffffffffffffff16611b91565b15610b5457610b53338989898980806020026020016040519081016040528093929190818152602001838360200280828437600081840152601f19601f82011690508083019250505050505050888880806020026020016040519081016040528093929190818152602001838360200280828437600081840152601f19601f8201169050808301925050505050505087878080601f016020809104026020016040519081016040528093929190818152602001838380828437600081840152601f19601f82011690508083019250505050505050611bdc565b5b5050505050505050565b6060828290508585905014610b7257600080fd5b606085859050604051908082528060200260200182016040528015610ba65781602001602082028038833980820191505090505b50905060008090505b86869050811015610c605760056000868684818110610bca57fe5b9050602002013581526020019081526020016000206000888884818110610bed57fe5b9050602002016020610c02919081019061230d565b73ffffffffffffffffffffffffffffffffffffffff1673ffffffffffffffffffffffffffffffffffffffff16815260200190815260200160002054828281518110610c4957fe5b602002602001018181525050806001019050610baf565b5080915050949350505050565b60086020528160005260406000208181548110610c8657fe5b9060005260206000209060020201600091509150508060000160009054906101000a900473ffffffffffffffffffffffffffffffffffffffff16908060010154905082565b610cd3610dfd565b610d12576040517f08c379a0000000000000000000000000000000000000000000000000000000008152600401610d0990612f1b565b60405180910390fd5b600073ffffffffffffffffffffffffffffffffffffffff16600160009054906101000a900473ffffffffffffffffffffffffffffffffffffffff1673ffffffffffffffffffffffffffffffffffffffff167f8be0079c531659141344cd1fd0a4f28419497f9722a3daafe3b4186f6b6457e060405160405180910390a36000600160006101000a81548173ffffffffffffffffffffffffffffffffffffffff021916908373ffffffffffffffffffffffffffffffffffffffff160217905550565b6000600160009054906101000a900473ffffffffffffffffffffffffffffffffffffffff16905090565b6000600160009054906101000a900473ffffffffffffffffffffffffffffffffffffffff1673ffffffffffffffffffffffffffffffffffffffff16610e40611cfd565b73ffffffffffffffffffffffffffffffffffffffff1614905090565b610e64610dfd565b610ea3576040517f08c379a0000000000000000000000000000000000000000000000000000000008152600401610e9a90612f1b565b60405180910390fd5b610eac81611d05565b50565b610eb7610dfd565b610ef6576040517f08c379a0000000000000000000000000000000000000000000000000000000008152600401610eed90612f1b565b60405180910390fd5b610eff81611d1f565b50565b80600660003373ffffffffffffffffffffffffffffffffffffffff1673ffffffffffffffffffffffffffffffffffffffff16815260200190815260200160002060008473ffffffffffffffffffffffffffffffffffffffff1673ffffffffffffffffffffffffffffffffffffffff16815260200190815260200160002060006101000a81548160ff0219169083151502179055508173ffffffffffffffffffffffffffffffffffffffff163373ffffffffffffffffffffffffffffffffffffffff167f17307eab39ab6107e8899845ad3d59bd9653f200f220920489ca2b5937696c3183604051610ff39190612e1c565b60405180910390a35050565b60608060086000848152602001908152602001600020805480602002602001604051908101604052809291908181526020016000905b828210156110c757838290600052602060002090600202016040518060400160405290816000820160009054906101000a900473ffffffffffffffffffffffffffffffffffffffff1673ffffffffffffffffffffffffffffffffffffffff1673ffffffffffffffffffffffffffffffffffffffff16815260200160018201548152505081526020019060010190611035565b505050509050606081516040519080825280602002602001820160405280156110ff5781602001602082028038833980820191505090505b50905060008090505b825181101561117c5782818151811061111d57fe5b60200260200101516000015182828151811061113557fe5b602002602001019073ffffffffffffffffffffffffffffffffffffffff16908173ffffffffffffffffffffffffffffffffffffffff16815250508080600101915050611108565b508092505050919050565b60028054600181600116156101000203166002900480601f01602080910402602001604051908101604052809291908181526020018280546001816001161561010002031660029004801561121d5780601f106111f25761010080835404028352916020019161121d565b820191906000526020600020905b81548152906001019060200180831161120057829003601f168201915b505050505081565b60076020528060005260406000206000915054906101000a900473ffffffffffffffffffffffffffffffffffffffff1681565b60048054600181600116156101000203166002900480601f0160208091040260200160405190810160405280929190818152602001828054600181600116156101000203166002900480156112ee5780601f106112c3576101008083540402835291602001916112ee565b820191906000526020600020905b8154815290600101906020018083116112d157829003601f168201915b505050505081565b6000600660008473ffffffffffffffffffffffffffffffffffffffff1673ffffffffffffffffffffffffffffffffffffffff16815260200190815260200160002060008373ffffffffffffffffffffffffffffffffffffffff1673ffffffffffffffffffffffffffffffffffffffff16815260200190815260200160002060009054906101000a900460ff16905092915050565b600073ffffffffffffffffffffffffffffffffffffffff168573ffffffffffffffffffffffffffffffffffffffff1614156113fa576040517f08c379a00000000000000000000000000000000000000000000000000000000081526004016113f190612f7b565b60405180910390fd5b3373ffffffffffffffffffffffffffffffffffffffff168673ffffffffffffffffffffffffffffffffffffffff1614806114c1575060011515600660008873ffffffffffffffffffffffffffffffffffffffff1673ffffffffffffffffffffffffffffffffffffffff16815260200190815260200160002060003373ffffffffffffffffffffffffffffffffffffffff1673ffffffffffffffffffffffffffffffffffffffff16815260200190815260200160002060009054906101000a900460ff161515145b611500576040517f08c379a00000000000000000000000000000000000000000000000000000000081526004016114f790612edb565b60405180910390fd5b611563836005600087815260200190815260200160002060008973ffffffffffffffffffffffffffffffffffffffff1673ffffffffffffffffffffffffffffffffffffffff16815260200190815260200160002054611b6090919063ffffffff16565b6005600086815260200190815260200160002060008873ffffffffffffffffffffffffffffffffffffffff1673ffffffffffffffffffffffffffffffffffffffff1681526020019081526020016000208190555061161a6005600086815260200190815260200160002060008773ffffffffffffffffffffffffffffffffffffffff1673ffffffffffffffffffffffffffffffffffffffff1681526020019081526020016000205484611b7790919063ffffffff16565b6005600086815260200190815260200160002060008773ffffffffffffffffffffffffffffffffffffffff1673ffffffffffffffffffffffffffffffffffffffff168152602001908152602001600020819055508473ffffffffffffffffffffffffffffffffffffffff168673ffffffffffffffffffffffffffffffffffffffff163373ffffffffffffffffffffffffffffffffffffffff167fc3d58168c5ae7397731d063d5bbf3d657854427343f4c083240f7aacaa2d0f6287876040516116e4929190612fb6565b60405180910390a461170b8573ffffffffffffffffffffffffffffffffffffffff16611b91565b1561176357611762338787878787878080601f016020809104026020016040519081016040528093929190818152602001838380828437600081840152601f19601f82011690508083019250505050505050611d39565b5b505050505050565b611773610dfd565b6117b2576040517f08c379a00000000000000000000000000000000000000000000000000000000081526004016117a990612f1b565b60405180910390fd5b6117bb81611e5a565b50565b3373ffffffffffffffffffffffffffffffffffffffff168373ffffffffffffffffffffffffffffffffffffffff161480611885575060011515600660008573ffffffffffffffffffffffffffffffffffffffff1673ffffffffffffffffffffffffffffffffffffffff16815260200190815260200160002060003373ffffffffffffffffffffffffffffffffffffffff1673ffffffffffffffffffffffffffffffffffffffff16815260200190815260200160002060009054906101000a900460ff161515145b6118c4576040517f08c379a00000000000000000000000000000000000000000000000000000000081526004016118bb90612ebb565b60405180910390fd5b611927816005600085815260200190815260200160002060008673ffffffffffffffffffffffffffffffffffffffff1673ffffffffffffffffffffffffffffffffffffffff16815260200190815260200160002054611b6090919063ffffffff16565b6005600084815260200190815260200160002060008573ffffffffffffffffffffffffffffffffffffffff1673ffffffffffffffffffffffffffffffffffffffff16815260200190815260200160002081905550600073ffffffffffffffffffffffffffffffffffffffff168373ffffffffffffffffffffffffffffffffffffffff163373ffffffffffffffffffffffffffffffffffffffff167fc3d58168c5ae7397731d063d5bbf3d657854427343f4c083240f7aacaa2d0f6285856040516119f2929190612fb6565b60405180910390a4505050565b6060611b59600360008481526020019081526020016000208054600181600116156101000203166002900480601f016020809104026020016040519081016040528092919081815260200182805460018160011615610100020316600290048015611aab5780601f10611a8057610100808354040283529160200191611aab565b820191906000526020600020905b815481529060010190602001808311611a8e57829003601f168201915b505050505060028054600181600116156101000203166002900480601f016020809104026020016040519081016040528092919081815260200182805460018160011615610100020316600290048015611b465780601f10611b1b57610100808354040283529160200191611b46565b820191906000526020600020905b815481529060010190602001808311611b2957829003601f168201915b5050505050611f8a90919063ffffffff16565b9050919050565b600082821115611b6c57fe5b818303905092915050565b6000818301905082811015611b8857fe5b80905092915050565b60008060007fc5d2460186f7233c927e7db2dcc703c0e500b653ca82273b7bfad8045d85a47060001b9050833f9150808214158015611bd357506000801b8214155b92505050919050565b63bc197c8160e01b7bffffffffffffffffffffffffffffffffffffffffffffffffffffffff19168473ffffffffffffffffffffffffffffffffffffffff1663bc197c8188888787876040518663ffffffff1660e01b8152600401611c44959493929190612cdb565b602060405180830381600087803b158015611c5e57600080fd5b505af1158015611c72573d6000803e3d6000fd5b505050506040513d601f19601f82011682018060405250611c969190810190612635565b7bffffffffffffffffffffffffffffffffffffffffffffffffffffffff191614611cf5576040517f08c379a0000000000000000000000000000000000000000000000000000000008152600401611cec90612efb565b60405180910390fd5b505050505050565b600033905090565b8060049080519060200190611d1b9291906120cd565b5050565b8060029080519060200190611d359291906120cd565b5050565b63f23a6e6160e01b7bffffffffffffffffffffffffffffffffffffffffffffffffffffffff19168473ffffffffffffffffffffffffffffffffffffffff1663f23a6e6188888787876040518663ffffffff1660e01b8152600401611da1959493929190612d43565b602060405180830381600087803b158015611dbb57600080fd5b505af1158015611dcf573d6000803e3d6000fd5b505050506040513d601f19601f82011682018060405250611df39190810190612635565b7bffffffffffffffffffffffffffffffffffffffffffffffffffffffff191614611e52576040517f08c379a0000000000000000000000000000000000000000000000000000000008152600401611e4990612f5b565b60405180910390fd5b505050505050565b600073ffffffffffffffffffffffffffffffffffffffff168173ffffffffffffffffffffffffffffffffffffffff161415611eca576040517f08c379a0000000000000000000000000000000000000000000000000000000008152600401611ec190612e7b565b60405180910390fd5b8073ffffffffffffffffffffffffffffffffffffffff16600160009054906101000a900473ffffffffffffffffffffffffffffffffffffffff1673ffffffffffffffffffffffffffffffffffffffff167f8be0079c531659141344cd1fd0a4f28419497f9722a3daafe3b4186f6b6457e060405160405180910390a380600160006101000a81548173ffffffffffffffffffffffffffffffffffffffff021916908373ffffffffffffffffffffffffffffffffffffffff16021790555050565b6060808390506060839050606081518351016040519080825280601f01601f191660200182016040528015611fce5781602001600182028038833980820191505090505b509050600080905060008090505b845181101561204a57848181518110611ff157fe5b602001015160f81c60f81b83838060010194508151811061200e57fe5b60200101907effffffffffffffffffffffffffffffffffffffffffffffffffffffffffffff1916908160001a9053508080600101915050611fdc565b5060008090505b83518110156120bf5783818151811061206657fe5b602001015160f81c60f81b83838060010194508151811061208357fe5b60200101907effffffffffffffffffffffffffffffffffffffffffffffffffffffffffffff1916908160001a9053508080600101915050612051565b508194505050505092915050565b828054600181600116156101000203166002900490600052602060002090601f016020900481019282601f1061210e57805160ff191683800117855561213c565b8280016001018555821561213c579182015b8281111561213b578251825591602001919060010190612120565b5b509050612149919061214d565b5090565b61216f91905b8082111561216b576000816000905550600101612153565b5090565b90565b600081359050612181816131c6565b92915050565b60008083601f84011261219957600080fd5b8235905067ffffffffffffffff8111156121b257600080fd5b6020830191508360208202830111156121ca57600080fd5b9250929050565b60008083601f8401126121e357600080fd5b8235905067ffffffffffffffff8111156121fc57600080fd5b60208301915083602082028301111561221457600080fd5b9250929050565b60008135905061222a816131dd565b92915050565b60008135905061223f816131f4565b92915050565b600081519050612254816131f4565b92915050565b60008083601f84011261226c57600080fd5b8235905067ffffffffffffffff81111561228557600080fd5b60208301915083600182028301111561229d57600080fd5b9250929050565b600082601f8301126122b557600080fd5b81356122c86122c38261300c565b612fdf565b915080825260208301602083018583830111156122e457600080fd5b6122ef838284613173565b50505092915050565b6000813590506123078161320b565b92915050565b60006020828403121561231f57600080fd5b600061232d84828501612172565b91505092915050565b6000806040838503121561234957600080fd5b600061235785828601612172565b925050602061236885828601612172565b9150509250929050565b60008060008060008060008060a0898b03121561238e57600080fd5b600061239c8b828c01612172565b98505060206123ad8b828c01612172565b975050604089013567ffffffffffffffff8111156123ca57600080fd5b6123d68b828c016121d1565b9650965050606089013567ffffffffffffffff8111156123f557600080fd5b6124018b828c016121d1565b9450945050608089013567ffffffffffffffff81111561242057600080fd5b61242c8b828c0161225a565b92509250509295985092959890939650565b60008060008060008060a0878903121561245757600080fd5b600061246589828a01612172565b965050602061247689828a01612172565b955050604061248789828a016122f8565b945050606061249889828a016122f8565b935050608087013567ffffffffffffffff8111156124b557600080fd5b6124c189828a0161225a565b92509250509295509295509295565b600080604083850312156124e357600080fd5b60006124f185828601612172565b92505060206125028582860161221b565b9150509250929050565b6000806040838503121561251f57600080fd5b600061252d85828601612172565b925050602061253e858286016122f8565b9150509250929050565b60008060006060848603121561255d57600080fd5b600061256b86828701612172565b935050602061257c868287016122f8565b925050604061258d868287016122f8565b9150509250925092565b600080600080604085870312156125ad57600080fd5b600085013567ffffffffffffffff8111156125c757600080fd5b6125d387828801612187565b9450945050602085013567ffffffffffffffff8111156125f257600080fd5b6125fe878288016121d1565b925092505092959194509250565b60006020828403121561261e57600080fd5b600061262c84828501612230565b91505092915050565b60006020828403121561264757600080fd5b600061265584828501612245565b91505092915050565b60006020828403121561267057600080fd5b600082013567ffffffffffffffff81111561268a57600080fd5b612696848285016122a4565b91505092915050565b6000602082840312156126b157600080fd5b60006126bf848285016122f8565b91505092915050565b600080604083850312156126db57600080fd5b60006126e9858286016122f8565b92505060206126fa858286016122f8565b9150509250929050565b60006127108383612734565b60208301905092915050565b60006127288383612c79565b60208301905092915050565b61273d816130ff565b82525050565b61274c816130ff565b82525050565b61275b816130ed565b82525050565b600061276c82613058565b61277681856130a9565b935061278183613038565b8060005b838110156127b25781516127998882612704565b97506127a48361308f565b925050600181019050612785565b5085935050505092915050565b60006127cb83856130ba565b93507f07ffffffffffffffffffffffffffffffffffffffffffffffffffffffffffffff8311156127fa57600080fd5b60208302925061280b838584613173565b82840190509392505050565b600061282282613063565b61282c81856130ba565b935061283783613048565b8060005b8381101561286857815161284f888261271c565b975061285a8361309c565b92505060018101905061283b565b5085935050505092915050565b61287e81613111565b82525050565b600061288f8261306e565b61289981856130cb565b93506128a9818560208601613182565b6128b2816131b5565b840191505092915050565b60006128c882613084565b6128d281856130dc565b93506128e2818560208601613182565b6128eb816131b5565b840191505092915050565b600061290182613079565b61290b81856130dc565b935061291b818560208601613182565b612924816131b5565b840191505092915050565b600061293c6026836130dc565b91507f4f776e61626c653a206e6577206f776e657220697320746865207a65726f206160008301527f64647265737300000000000000000000000000000000000000000000000000006020830152604082019050919050565b60006129a26025836130dc565b91507f64657374696e6174696f6e2061646472657373206d757374206265206e6f6e2d60008301527f7a65726f2e0000000000000000000000000000000000000000000000000000006020830152604082019050919050565b6000612a08602b836130dc565b91507f4e656564206f70657261746f7220617070726f76616c20666f7220337264207060008301527f61727479206275726e732e0000000000000000000000000000000000000000006020830152604082019050919050565b6000612a6e602f836130dc565b91507f4e656564206f70657261746f7220617070726f76616c20666f7220337264207060008301527f61727479207472616e73666572732e00000000000000000000000000000000006020830152604082019050919050565b6000612ad4603e836130dc565b91507f636f6e74726163742072657475726e656420616e20756e6b6e6f776e2076616c60008301527f75652066726f6d206f6e455243313135354261746368526563656976656400006020830152604082019050919050565b6000612b3a6020836130dc565b91507f4f776e61626c653a2063616c6c6572206973206e6f7420746865206f776e65726000830152602082019050919050565b6000612b7a6029836130dc565b91507f5f69647320616e64205f76616c756573206172726179206c656e676874206d7560008301527f7374206d617463682e00000000000000000000000000000000000000000000006020830152604082019050919050565b6000612be06039836130dc565b91507f636f6e74726163742072657475726e656420616e20756e6b6e6f776e2076616c60008301527f75652066726f6d206f6e455243313135355265636569766564000000000000006020830152604082019050919050565b6000612c466015836130dc565b91507f5f746f206d757374206265206e6f6e2d7a65726f2e00000000000000000000006000830152602082019050919050565b612c8281613169565b82525050565b612c9181613169565b82525050565b6000602082019050612cac6000830184612752565b92915050565b6000604082019050612cc76000830185612743565b612cd46020830184612c88565b9392505050565b600060a082019050612cf06000830188612752565b612cfd6020830187612752565b8181036040830152612d0f8186612817565b90508181036060830152612d238185612817565b90508181036080830152612d378184612884565b90509695505050505050565b600060a082019050612d586000830188612752565b612d656020830187612752565b612d726040830186612c88565b612d7f6060830185612c88565b8181036080830152612d918184612884565b90509695505050505050565b60006020820190508181036000830152612db78184612761565b905092915050565b60006040820190508181036000830152612dda8186886127bf565b90508181036020830152612def8184866127bf565b905095945050505050565b60006020820190508181036000830152612e148184612817565b905092915050565b6000602082019050612e316000830184612875565b92915050565b60006020820190508181036000830152612e5181846128f6565b905092915050565b60006020820190508181036000830152612e7381846128bd565b905092915050565b60006020820190508181036000830152612e948161292f565b9050919050565b60006020820190508181036000830152612eb481612995565b9050919050565b60006020820190508181036000830152612ed4816129fb565b9050919050565b60006020820190508181036000830152612ef481612a61565b9050919050565b60006020820190508181036000830152612f1481612ac7565b9050919050565b60006020820190508181036000830152612f3481612b2d565b9050919050565b60006020820190508181036000830152612f5481612b6d565b9050919050565b60006020820190508181036000830152612f7481612bd3565b9050919050565b60006020820190508181036000830152612f9481612c39565b9050919050565b6000602082019050612fb06000830184612c88565b92915050565b6000604082019050612fcb6000830185612c88565b612fd86020830184612c88565b9392505050565b6000604051905081810181811067ffffffffffffffff8211171561300257600080fd5b8060405250919050565b600067ffffffffffffffff82111561302357600080fd5b601f19601f8301169050602081019050919050565b6000819050602082019050919050565b6000819050602082019050919050565b600081519050919050565b600081519050919050565b600081519050919050565b600081519050919050565b600081519050919050565b6000602082019050919050565b6000602082019050919050565b600082825260208201905092915050565b600082825260208201905092915050565b600082825260208201905092915050565b600082825260208201905092915050565b60006130f882613149565b9050919050565b600061310a82613149565b9050919050565b60008115159050919050565b60007fffffffff0000000000000000000000000000000000000000000000000000000082169050919050565b600073ffffffffffffffffffffffffffffffffffffffff82169050919050565b6000819050919050565b82818337600083830152505050565b60005b838110156131a0578082015181840152602081019050613185565b838111156131af576000848401525b50505050565b6000601f19601f8301169050919050565b6131cf816130ed565b81146131da57600080fd5b50565b6131e681613111565b81146131f157600080fd5b50565b6131fd8161311d565b811461320857600080fd5b50565b61321481613169565b811461321f57600080fd5b5056fea365627a7a723158205cfbe0a0f2e9f4d06643f0af21cb537818727e4ee387462dfb2b3b82159c9ca06c6578706572696d656e74616cf564736f6c63430005100040",
  "source": "/**\n *Submitted for verification at Etherscan.io on 2020-05-27\n*/\n\npragma solidity ^0.5.0;\npragma experimental ABIEncoderV2;\n\n/**\n * @title SafeMath\n * @dev Math operations with safety checks that throw on error\n */\nlibrary SafeMath {\n\n    /**\n    * @dev Multiplies two numbers, throws on overflow.\n    */\n    function mul(uint256 a, uint256 b) internal pure returns (uint256 c) {\n        // Gas optimization: this is cheaper than asserting 'a' not being zero, but the\n        // benefit is lost if 'b' is also tested.\n        // See: https://github.com/OpenZeppelin/openzeppelin-solidity/pull/522\n        if (a == 0) {\n            return 0;\n        }\n\n        c = a * b;\n        assert(c / a == b);\n        return c;\n    }\n\n    /**\n    * @dev Integer division of two numbers, truncating the quotient.\n    */\n    function div(uint256 a, uint256 b) internal pure returns (uint256) {\n        // assert(b > 0); // Solidity automatically throws when dividing by 0\n        // uint256 c = a / b;\n        // assert(a == b * c + a % b); // There is no case in which this doesn't hold\n        return a / b;\n    }\n\n    /**\n    * @dev Subtracts two numbers, throws on overflow (i.e. if subtrahend is greater than minuend).\n    */\n    function sub(uint256 a, uint256 b) internal pure returns (uint256) {\n        assert(b <= a);\n        return a - b;\n    }\n\n    /**\n    * @dev Adds two numbers, throws on overflow.\n    */\n    function add(uint256 a, uint256 b) internal pure returns (uint256 c) {\n        c = a + b;\n        assert(c >= a);\n        return c;\n    }\n}\n\n/**\n    Note: Simple contract to use as base for const vals\n*/\ncontract CommonConstants {\n\n    bytes4 constant internal ERC1155_ACCEPTED = 0xf23a6e61; // bytes4(keccak256(\"onERC1155Received(address,address,uint256,uint256,bytes)\"))\n    bytes4 constant internal ERC1155_BATCH_ACCEPTED = 0xbc197c81; // bytes4(keccak256(\"onERC1155BatchReceived(address,address,uint256[],uint256[],bytes)\"))\n}\n\n/**\n    Note: The ERC-165 identifier for this interface is 0x4e2312e0.\n*/\ninterface ERC1155TokenReceiver {\n    /**\n        @notice Handle the receipt of a single ERC1155 token type.\n        @dev An ERC1155-compliant smart contract MUST call this function on the token recipient contract, at the end of a `safeTransferFrom` after the balance has been updated.\n        This function MUST return `bytes4(keccak256(\"onERC1155Received(address,address,uint256,uint256,bytes)\"))` (i.e. 0xf23a6e61) if it accepts the transfer.\n        This function MUST revert if it rejects the transfer.\n        Return of any other value than the prescribed keccak256 generated value MUST result in the transaction being reverted by the caller.\n        @param _operator  The address which initiated the transfer (i.e. msg.sender)\n        @param _from      The address which previously owned the token\n        @param _id        The ID of the token being transferred\n        @param _value     The amount of tokens being transferred\n        @param _data      Additional data with no specified format\n        @return           `bytes4(keccak256(\"onERC1155Received(address,address,uint256,uint256,bytes)\"))`\n    */\n    function onERC1155Received(address _operator, address _from, uint256 _id, uint256 _value, bytes calldata _data) external returns(bytes4);\n\n    /**\n        @notice Handle the receipt of multiple ERC1155 token types.\n        @dev An ERC1155-compliant smart contract MUST call this function on the token recipient contract, at the end of a `safeBatchTransferFrom` after the balances have been updated.\n        This function MUST return `bytes4(keccak256(\"onERC1155BatchReceived(address,address,uint256[],uint256[],bytes)\"))` (i.e. 0xbc197c81) if it accepts the transfer(s).\n        This function MUST revert if it rejects the transfer(s).\n        Return of any other value than the prescribed keccak256 generated value MUST result in the transaction being reverted by the caller.\n        @param _operator  The address which initiated the batch transfer (i.e. msg.sender)\n        @param _from      The address which previously owned the token\n        @param _ids       An array containing ids of each token being transferred (order and length must match _values array)\n        @param _values    An array containing amounts of each token being transferred (order and length must match _ids array)\n        @param _data      Additional data with no specified format\n        @return           `bytes4(keccak256(\"onERC1155BatchReceived(address,address,uint256[],uint256[],bytes)\"))`\n    */\n    function onERC1155BatchReceived(address _operator, address _from, uint256[] calldata _ids, uint256[] calldata _values, bytes calldata _data) external returns(bytes4);\n}\n\n/**\n * @dev Interface of the ERC165 standard, as defined in the\n * https://eips.ethereum.org/EIPS/eip-165[EIP].\n *\n * Implementers can declare support of contract interfaces, which can then be\n * queried by others ({ERC165Checker}).\n *\n * For an implementation, see {ERC165}.\n */\ninterface IERC165 {\n    /**\n     * @dev Returns true if this contract implements the interface defined by\n     * `interfaceId`. See the corresponding\n     * https://eips.ethereum.org/EIPS/eip-165#how-interfaces-are-identified[EIP section]\n     * to learn more about how these ids are created.\n     *\n     * This function call must use less than 30 000 gas.\n     */\n    function supportsInterface(bytes4 interfaceId) external view returns (bool);\n}\n\n/**\n    @title ERC-1155 Multi Token Standard\n    @dev See https://github.com/ethereum/EIPs/blob/master/EIPS/eip-1155.md\n    Note: The ERC-165 identifier for this interface is 0xd9b67a26.\n */\ncontract IERC1155 is IERC165 {\n    /**\n        @dev Either `TransferSingle` or `TransferBatch` MUST emit when tokens are transferred, including zero value transfers as well as minting or burning (see \"Safe Transfer Rules\" section of the standard).\n        The `_operator` argument MUST be msg.sender.\n        The `_from` argument MUST be the address of the holder whose balance is decreased.\n        The `_to` argument MUST be the address of the recipient whose balance is increased.\n        The `_id` argument MUST be the token type being transferred.\n        The `_value` argument MUST be the number of tokens the holder balance is decreased by and match what the recipient balance is increased by.\n        When minting/creating tokens, the `_from` argument MUST be set to `0x0` (i.e. zero address).\n        When burning/destroying tokens, the `_to` argument MUST be set to `0x0` (i.e. zero address).\n    */\n    event TransferSingle(address indexed _operator, address indexed _from, address indexed _to, uint256 _id, uint256 _value);\n\n    /**\n        @dev Either `TransferSingle` or `TransferBatch` MUST emit when tokens are transferred, including zero value transfers as well as minting or burning (see \"Safe Transfer Rules\" section of the standard).\n        The `_operator` argument MUST be msg.sender.\n        The `_from` argument MUST be the address of the holder whose balance is decreased.\n        The `_to` argument MUST be the address of the recipient whose balance is increased.\n        The `_ids` argument MUST be the list of tokens being transferred.\n        The `_values` argument MUST be the list of number of tokens (matching the list and order of tokens specified in _ids) the holder balance is decreased by and match what the recipient balance is increased by.\n        When minting/creating tokens, the `_from` argument MUST be set to `0x0` (i.e. zero address).\n        When burning/destroying tokens, the `_to` argument MUST be set to `0x0` (i.e. zero address).\n    */\n    event TransferBatch(address indexed _operator, address indexed _from, address indexed _to, uint256[] _ids, uint256[] _values);\n\n    /**\n        @dev MUST emit when approval for a second party/operator address to manage all tokens for an owner address is enabled or disabled (absense of an event assumes disabled).\n    */\n    event ApprovalForAll(address indexed _owner, address indexed _operator, bool _approved);\n\n    /**\n        @dev MUST emit when the URI is updated for a token ID.\n        URIs are defined in RFC 3986.\n        The URI MUST point a JSON file that conforms to the \"ERC-1155 Metadata URI JSON Schema\".\n    */\n    event URI(string _value, uint256 indexed _id);\n\n    /**\n        @notice Transfers `_value` amount of an `_id` from the `_from` address to the `_to` address specified (with safety call).\n        @dev Caller must be approved to manage the tokens being transferred out of the `_from` account (see \"Approval\" section of the standard).\n        MUST revert if `_to` is the zero address.\n        MUST revert if balance of holder for token `_id` is lower than the `_value` sent.\n        MUST revert on any other error.\n        MUST emit the `TransferSingle` event to reflect the balance change (see \"Safe Transfer Rules\" section of the standard).\n        After the above conditions are met, this function MUST check if `_to` is a smart contract (e.g. code size > 0). If so, it MUST call `onERC1155Received` on `_to` and act appropriately (see \"Safe Transfer Rules\" section of the standard).\n        @param _from    Source address\n        @param _to      Target address\n        @param _id      ID of the token type\n        @param _value   Transfer amount\n        @param _data    Additional data with no specified format, MUST be sent unaltered in call to `onERC1155Received` on `_to`\n    */\n    function safeTransferFrom(address _from, address _to, uint256 _id, uint256 _value, bytes calldata _data) external;\n\n    /**\n        @notice Transfers `_values` amount(s) of `_ids` from the `_from` address to the `_to` address specified (with safety call).\n        @dev Caller must be approved to manage the tokens being transferred out of the `_from` account (see \"Approval\" section of the standard).\n        MUST revert if `_to` is the zero address.\n        MUST revert if length of `_ids` is not the same as length of `_values`.\n        MUST revert if any of the balance(s) of the holder(s) for token(s) in `_ids` is lower than the respective amount(s) in `_values` sent to the recipient.\n        MUST revert on any other error.\n        MUST emit `TransferSingle` or `TransferBatch` event(s) such that all the balance changes are reflected (see \"Safe Transfer Rules\" section of the standard).\n        Balance changes and events MUST follow the ordering of the arrays (_ids[0]/_values[0] before _ids[1]/_values[1], etc).\n        After the above conditions for the transfer(s) in the batch are met, this function MUST check if `_to` is a smart contract (e.g. code size > 0). If so, it MUST call the relevant `ERC1155TokenReceiver` hook(s) on `_to` and act appropriately (see \"Safe Transfer Rules\" section of the standard).\n        @param _from    Source address\n        @param _to      Target address\n        @param _ids     IDs of each token type (order and length must match _values array)\n        @param _values  Transfer amounts per token type (order and length must match _ids array)\n        @param _data    Additional data with no specified format, MUST be sent unaltered in call to the `ERC1155TokenReceiver` hook(s) on `_to`\n    */\n    function safeBatchTransferFrom(address _from, address _to, uint256[] calldata _ids, uint256[] calldata _values, bytes calldata _data) external;\n\n    /**\n        @notice Get the balance of an account's Tokens.\n        @param _owner  The address of the token holder\n        @param _id     ID of the Token\n        @return        The _owner's balance of the Token type requested\n     */\n    function balanceOf(address _owner, uint256 _id) external view returns (uint256);\n\n    /**\n        @notice Get the balance of multiple account/token pairs\n        @param _owners The addresses of the token holders\n        @param _ids    ID of the Tokens\n        @return        The _owner's balance of the Token types requested (i.e. balance for each (owner, id) pair)\n     */\n    function balanceOfBatch(address[] calldata _owners, uint256[] calldata _ids) external view returns (uint256[] memory);\n\n    /**\n        @notice Enable or disable approval for a third party (\"operator\") to manage all of the caller's tokens.\n        @dev MUST emit the ApprovalForAll event on success.\n        @param _operator  Address to add to the set of authorized operators\n        @param _approved  True if the operator is approved, false to revoke approval\n    */\n    function setApprovalForAll(address _operator, bool _approved) external;\n\n    /**\n        @notice Queries the approval status of an operator for a given owner.\n        @param _owner     The owner of the Tokens\n        @param _operator  Address of authorized operator\n        @return           True if the operator is approved, false if not\n    */\n    function isApprovedForAll(address _owner, address _operator) external view returns (bool);\n}\n\n/**\n * @dev Implementation of the {IERC165} interface.\n *\n * Contracts may inherit from this and call {_registerInterface} to declare\n * their support of an interface.\n */\ncontract ERC165 is IERC165 {\n    /*\n     * bytes4(keccak256('supportsInterface(bytes4)')) == 0x01ffc9a7\n     */\n    bytes4 private constant _INTERFACE_ID_ERC165 = 0x01ffc9a7;\n\n    /**\n     * @dev Mapping of interface ids to whether or not it's supported.\n     */\n    mapping(bytes4 => bool) private _supportedInterfaces;\n\n    constructor () internal {\n        // Derived contracts need only register support for their own interfaces,\n        // we register support for ERC165 itself here\n        _registerInterface(_INTERFACE_ID_ERC165);\n    }\n\n    /**\n     * @dev See {IERC165-supportsInterface}.\n     *\n     * Time complexity O(1), guaranteed to always use less than 30 000 gas.\n     */\n    function supportsInterface(bytes4 interfaceId) external view returns (bool) {\n        return _supportedInterfaces[interfaceId];\n    }\n\n    /**\n     * @dev Registers the contract as an implementer of the interface defined by\n     * `interfaceId`. Support of the actual ERC165 interface is automatic and\n     * registering its interface id is not required.\n     *\n     * See {IERC165-supportsInterface}.\n     *\n     * Requirements:\n     *\n     * - `interfaceId` cannot be the ERC165 invalid interface (`0xffffffff`).\n     */\n    function _registerInterface(bytes4 interfaceId) internal {\n        require(interfaceId != 0xffffffff, \"ERC165: invalid interface id\");\n        _supportedInterfaces[interfaceId] = true;\n    }\n}\n\n/**\n * @dev Collection of functions related to the address type\n */\nlibrary Address {\n    /**\n     * @dev Returns true if `account` is a contract.\n     *\n     * [IMPORTANT]\n     * ====\n     * It is unsafe to assume that an address for which this function returns\n     * false is an externally-owned account (EOA) and not a contract.\n     *\n     * Among others, `isContract` will return false for the following \n     * types of addresses:\n     *\n     *  - an externally-owned account\n     *  - a contract in construction\n     *  - an address where a contract will be created\n     *  - an address where a contract lived, but was destroyed\n     * ====\n     */\n    function isContract(address account) internal view returns (bool) {\n        // According to EIP-1052, 0x0 is the value returned for not-yet created accounts\n        // and 0xc5d2460186f7233c927e7db2dcc703c0e500b653ca82273b7bfad8045d85a470 is returned\n        // for accounts without code, i.e. `keccak256('')`\n        bytes32 codehash;\n        bytes32 accountHash = 0xc5d2460186f7233c927e7db2dcc703c0e500b653ca82273b7bfad8045d85a470;\n        // solhint-disable-next-line no-inline-assembly\n        assembly { codehash := extcodehash(account) }\n        return (codehash != accountHash && codehash != 0x0);\n    }\n\n    /**\n     * @dev Converts an `address` into `address payable`. Note that this is\n     * simply a type cast: the actual underlying value is not changed.\n     *\n     * _Available since v2.4.0._\n     */\n    function toPayable(address account) internal pure returns (address payable) {\n        return address(uint160(account));\n    }\n\n    /**\n     * @dev Replacement for Solidity's `transfer`: sends `amount` wei to\n     * `recipient`, forwarding all available gas and reverting on errors.\n     *\n     * https://eips.ethereum.org/EIPS/eip-1884[EIP1884] increases the gas cost\n     * of certain opcodes, possibly making contracts go over the 2300 gas limit\n     * imposed by `transfer`, making them unable to receive funds via\n     * `transfer`. {sendValue} removes this limitation.\n     *\n     * https://diligence.consensys.net/posts/2019/09/stop-using-soliditys-transfer-now/[Learn more].\n     *\n     * IMPORTANT: because control is transferred to `recipient`, care must be\n     * taken to not create reentrancy vulnerabilities. Consider using\n     * {ReentrancyGuard} or the\n     * https://solidity.readthedocs.io/en/v0.5.11/security-considerations.html#use-the-checks-effects-interactions-pattern[checks-effects-interactions pattern].\n     *\n     * _Available since v2.4.0._\n     */\n    function sendValue(address payable recipient, uint256 amount) internal {\n        require(address(this).balance >= amount, \"Address: insufficient balance\");\n\n        // solhint-disable-next-line avoid-call-value\n        (bool success, ) = recipient.call.value(amount)(\"\");\n        require(success, \"Address: unable to send value, recipient may have reverted\");\n    }\n}\n\n// A sample implementation of core ERC1155 function.\ncontract ERC1155 is IERC1155, ERC165, CommonConstants\n{\n    using SafeMath for uint256;\n    using Address for address;\n\n    // id => (owner => balance)\n    mapping (uint256 => mapping(address => uint256)) internal balances;\n\n    // owner => (operator => approved)\n    mapping (address => mapping(address => bool)) internal operatorApproval;\n\n/////////////////////////////////////////// ERC165 //////////////////////////////////////////////\n\n    /*\n        bytes4(keccak256(\"safeTransferFrom(address,address,uint256,uint256,bytes)\")) ^\n        bytes4(keccak256(\"safeBatchTransferFrom(address,address,uint256[],uint256[],bytes)\")) ^\n        bytes4(keccak256(\"balanceOf(address,uint256)\")) ^\n        bytes4(keccak256(\"balanceOfBatch(address[],uint256[])\")) ^\n        bytes4(keccak256(\"setApprovalForAll(address,bool)\")) ^\n        bytes4(keccak256(\"isApprovedForAll(address,address)\"));\n    */\n    bytes4 constant private INTERFACE_SIGNATURE_ERC1155 = 0xd9b67a26;\n\n/////////////////////////////////////////// CONSTRUCTOR //////////////////////////////////////////\n\n    constructor() public {\n        _registerInterface(INTERFACE_SIGNATURE_ERC1155);\n    }\n\n/////////////////////////////////////////// ERC1155 //////////////////////////////////////////////\n\n    /**\n        @notice Transfers `_value` amount of an `_id` from the `_from` address to the `_to` address specified (with safety call).\n        @dev Caller must be approved to manage the tokens being transferred out of the `_from` account (see \"Approval\" section of the standard).\n        MUST revert if `_to` is the zero address.\n        MUST revert if balance of holder for token `_id` is lower than the `_value` sent.\n        MUST revert on any other error.\n        MUST emit the `TransferSingle` event to reflect the balance change (see \"Safe Transfer Rules\" section of the standard).\n        After the above conditions are met, this function MUST check if `_to` is a smart contract (e.g. code size > 0). If so, it MUST call `onERC1155Received` on `_to` and act appropriately (see \"Safe Transfer Rules\" section of the standard).\n        @param _from    Source address\n        @param _to      Target address\n        @param _id      ID of the token type\n        @param _value   Transfer amount\n        @param _data    Additional data with no specified format, MUST be sent unaltered in call to `onERC1155Received` on `_to`\n    */\n    function safeTransferFrom(address _from, address _to, uint256 _id, uint256 _value, bytes calldata _data) external {\n\n        require(_to != address(0x0), \"_to must be non-zero.\");\n        require(_from == msg.sender || operatorApproval[_from][msg.sender] == true, \"Need operator approval for 3rd party transfers.\");\n\n        // SafeMath will throw with insuficient funds _from\n        // or if _id is not valid (balance will be 0)\n        balances[_id][_from] = balances[_id][_from].sub(_value);\n        balances[_id][_to]   = _value.add(balances[_id][_to]);\n\n        // MUST emit event\n        emit TransferSingle(msg.sender, _from, _to, _id, _value);\n\n        // Now that the balance is updated and the event was emitted,\n        // call onERC1155Received if the destination is a contract.\n        if (_to.isContract()) {\n            _doSafeTransferAcceptanceCheck(msg.sender, _from, _to, _id, _value, _data);\n        }\n    }\n\n    /**\n        @notice Transfers `_values` amount(s) of `_ids` from the `_from` address to the `_to` address specified (with safety call).\n        @dev Caller must be approved to manage the tokens being transferred out of the `_from` account (see \"Approval\" section of the standard).\n        MUST revert if `_to` is the zero address.\n        MUST revert if length of `_ids` is not the same as length of `_values`.\n        MUST revert if any of the balance(s) of the holder(s) for token(s) in `_ids` is lower than the respective amount(s) in `_values` sent to the recipient.\n        MUST revert on any other error.\n        MUST emit `TransferSingle` or `TransferBatch` event(s) such that all the balance changes are reflected (see \"Safe Transfer Rules\" section of the standard).\n        Balance changes and events MUST follow the ordering of the arrays (_ids[0]/_values[0] before _ids[1]/_values[1], etc).\n        After the above conditions for the transfer(s) in the batch are met, this function MUST check if `_to` is a smart contract (e.g. code size > 0). If so, it MUST call the relevant `ERC1155TokenReceiver` hook(s) on `_to` and act appropriately (see \"Safe Transfer Rules\" section of the standard).\n        @param _from    Source address\n        @param _to      Target address\n        @param _ids     IDs of each token type (order and length must match _values array)\n        @param _values  Transfer amounts per token type (order and length must match _ids array)\n        @param _data    Additional data with no specified format, MUST be sent unaltered in call to the `ERC1155TokenReceiver` hook(s) on `_to`\n    */\n    function safeBatchTransferFrom(address _from, address _to, uint256[] calldata _ids, uint256[] calldata _values, bytes calldata _data) external {\n\n        // MUST Throw on errors\n        require(_to != address(0x0), \"destination address must be non-zero.\");\n        require(_ids.length == _values.length, \"_ids and _values array lenght must match.\");\n        require(_from == msg.sender || operatorApproval[_from][msg.sender] == true, \"Need operator approval for 3rd party transfers.\");\n\n        for (uint256 i = 0; i < _ids.length; ++i) {\n            uint256 id = _ids[i];\n            uint256 value = _values[i];\n\n            // SafeMath will throw with insuficient funds _from\n            // or if _id is not valid (balance will be 0)\n            balances[id][_from] = balances[id][_from].sub(value);\n            balances[id][_to]   = value.add(balances[id][_to]);\n        }\n\n        // Note: instead of the below batch versions of event and acceptance check you MAY have emitted a TransferSingle\n        // event and a subsequent call to _doSafeTransferAcceptanceCheck in above loop for each balance change instead.\n        // Or emitted a TransferSingle event for each in the loop and then the single _doSafeBatchTransferAcceptanceCheck below.\n        // However it is implemented the balance changes and events MUST match when a check (i.e. calling an external contract) is done.\n\n        // MUST emit event\n        emit TransferBatch(msg.sender, _from, _to, _ids, _values);\n\n        // Now that the balances are updated and the events are emitted,\n        // call onERC1155BatchReceived if the destination is a contract.\n        if (_to.isContract()) {\n            _doSafeBatchTransferAcceptanceCheck(msg.sender, _from, _to, _ids, _values, _data);\n        }\n    }\n\n    /**\n        @notice Get the balance of an account's Tokens.\n        @param _owner  The address of the token holder\n        @param _id     ID of the Token\n        @return        The _owner's balance of the Token type requested\n     */\n    function balanceOf(address _owner, uint256 _id) external view returns (uint256) {\n        // The balance of any account can be calculated from the Transfer events history.\n        // However, since we need to keep the balances to validate transfer request,\n        // there is no extra cost to also privide a querry function.\n        return balances[_id][_owner];\n    }\n\n\n    /**\n        @notice Get the balance of multiple account/token pairs\n        @param _owners The addresses of the token holders\n        @param _ids    ID of the Tokens\n        @return        The _owner's balance of the Token types requested (i.e. balance for each (owner, id) pair)\n     */\n    function balanceOfBatch(address[] calldata _owners, uint256[] calldata _ids) external view returns (uint256[] memory) {\n\n        require(_owners.length == _ids.length);\n\n        uint256[] memory balances_ = new uint256[](_owners.length);\n\n        for (uint256 i = 0; i < _owners.length; ++i) {\n            balances_[i] = balances[_ids[i]][_owners[i]];\n        }\n\n        return balances_;\n    }\n\n    /**\n        @notice Enable or disable approval for a third party (\"operator\") to manage all of the caller's tokens.\n        @dev MUST emit the ApprovalForAll event on success.\n        @param _operator  Address to add to the set of authorized operators\n        @param _approved  True if the operator is approved, false to revoke approval\n    */\n    function setApprovalForAll(address _operator, bool _approved) external {\n        operatorApproval[msg.sender][_operator] = _approved;\n        emit ApprovalForAll(msg.sender, _operator, _approved);\n    }\n\n    /**\n        @notice Queries the approval status of an operator for a given owner.\n        @param _owner     The owner of the Tokens\n        @param _operator  Address of authorized operator\n        @return           True if the operator is approved, false if not\n    */\n    function isApprovedForAll(address _owner, address _operator) external view returns (bool) {\n        return operatorApproval[_owner][_operator];\n    }\n\n/////////////////////////////////////////// Internal //////////////////////////////////////////////\n\n    function _doSafeTransferAcceptanceCheck(address _operator, address _from, address _to, uint256 _id, uint256 _value, bytes memory _data) internal {\n\n        // If this was a hybrid standards solution you would have to check ERC165(_to).supportsInterface(0x4e2312e0) here but as this is a pure implementation of an ERC-1155 token set as recommended by\n        // the standard, it is not necessary. The below should revert in all failure cases i.e. _to isn't a receiver, or it is and either returns an unknown value or it reverts in the call to indicate non-acceptance.\n\n\n        // Note: if the below reverts in the onERC1155Received function of the _to address you will have an undefined revert reason returned rather than the one in the require test.\n        // If you want predictable revert reasons consider using low level _to.call() style instead so the revert does not bubble up and you can revert yourself on the ERC1155_ACCEPTED test.\n        require(ERC1155TokenReceiver(_to).onERC1155Received(_operator, _from, _id, _value, _data) == ERC1155_ACCEPTED, \"contract returned an unknown value from onERC1155Received\");\n    }\n\n    function _doSafeBatchTransferAcceptanceCheck(address _operator, address _from, address _to, uint256[] memory _ids, uint256[] memory _values, bytes memory _data) internal {\n\n        // If this was a hybrid standards solution you would have to check ERC165(_to).supportsInterface(0x4e2312e0) here but as this is a pure implementation of an ERC-1155 token set as recommended by\n        // the standard, it is not necessary. The below should revert in all failure cases i.e. _to isn't a receiver, or it is and either returns an unknown value or it reverts in the call to indicate non-acceptance.\n\n        // Note: if the below reverts in the onERC1155BatchReceived function of the _to address you will have an undefined revert reason returned rather than the one in the require test.\n        // If you want predictable revert reasons consider using low level _to.call() style instead so the revert does not bubble up and you can revert yourself on the ERC1155_BATCH_ACCEPTED test.\n        require(ERC1155TokenReceiver(_to).onERC1155BatchReceived(_operator, _from, _ids, _values, _data) == ERC1155_BATCH_ACCEPTED, \"contract returned an unknown value from onERC1155BatchReceived\");\n    }\n}\n\nlibrary UintLibrary {\n    function toString(uint256 _i) internal pure returns (string memory) {\n        if (_i == 0) {\n            return \"0\";\n        }\n        uint j = _i;\n        uint len;\n        while (j != 0) {\n            len++;\n            j /= 10;\n        }\n        bytes memory bstr = new bytes(len);\n        uint k = len - 1;\n        while (_i != 0) {\n            bstr[k--] = byte(uint8(48 + _i % 10));\n            _i /= 10;\n        }\n        return string(bstr);\n    }\n}\n\nlibrary StringLibrary {\n    using UintLibrary for uint256;\n\n    function append(string memory _a, string memory _b) internal pure returns (string memory) {\n        bytes memory _ba = bytes(_a);\n        bytes memory _bb = bytes(_b);\n        bytes memory bab = new bytes(_ba.length + _bb.length);\n        uint k = 0;\n        for (uint i = 0; i < _ba.length; i++) bab[k++] = _ba[i];\n        for (uint i = 0; i < _bb.length; i++) bab[k++] = _bb[i];\n        return string(bab);\n    }\n\n    function append(string memory _a, string memory _b, string memory _c) internal pure returns (string memory) {\n        bytes memory _ba = bytes(_a);\n        bytes memory _bb = bytes(_b);\n        bytes memory _bc = bytes(_c);\n        bytes memory bbb = new bytes(_ba.length + _bb.length + _bc.length);\n        uint k = 0;\n        for (uint i = 0; i < _ba.length; i++) bbb[k++] = _ba[i];\n        for (uint i = 0; i < _bb.length; i++) bbb[k++] = _bb[i];\n        for (uint i = 0; i < _bc.length; i++) bbb[k++] = _bc[i];\n        return string(bbb);\n    }\n\n    function recover(string memory message, uint8 v, bytes32 r, bytes32 s) internal pure returns (address) {\n        bytes memory msgBytes = bytes(message);\n        bytes memory fullMessage = concat(\n            bytes(\"\\x19Ethereum Signed Message:\\n\"),\n            bytes(msgBytes.length.toString()),\n            msgBytes,\n            new bytes(0), new bytes(0), new bytes(0), new bytes(0)\n        );\n        return ecrecover(keccak256(fullMessage), v, r, s);\n    }\n\n    function concat(bytes memory _ba, bytes memory _bb, bytes memory _bc, bytes memory _bd, bytes memory _be, bytes memory _bf, bytes memory _bg) internal pure returns (bytes memory) {\n        bytes memory resultBytes = new bytes(_ba.length + _bb.length + _bc.length + _bd.length + _be.length + _bf.length + _bg.length);\n        uint k = 0;\n        for (uint i = 0; i < _ba.length; i++) resultBytes[k++] = _ba[i];\n        for (uint i = 0; i < _bb.length; i++) resultBytes[k++] = _bb[i];\n        for (uint i = 0; i < _bc.length; i++) resultBytes[k++] = _bc[i];\n        for (uint i = 0; i < _bd.length; i++) resultBytes[k++] = _bd[i];\n        for (uint i = 0; i < _be.length; i++) resultBytes[k++] = _be[i];\n        for (uint i = 0; i < _bf.length; i++) resultBytes[k++] = _bf[i];\n        for (uint i = 0; i < _bg.length; i++) resultBytes[k++] = _bg[i];\n        return resultBytes;\n    }\n}\n\ncontract HasContractURI is ERC165 {\n\n    string public contractURI;\n\n    /*\n     * bytes4(keccak256('contractURI()')) == 0xe8a3d485\n     */\n    bytes4 private constant _INTERFACE_ID_CONTRACT_URI = 0xe8a3d485;\n\n    constructor(string memory _contractURI) public {\n        contractURI = _contractURI;\n        _registerInterface(_INTERFACE_ID_CONTRACT_URI);\n    }\n\n    /**\n     * @dev Internal function to set the contract URI\n     * @param _contractURI string URI prefix to assign\n     */\n    function _setContractURI(string memory _contractURI) internal {\n        contractURI = _contractURI;\n    }\n}\n\ncontract HasTokenURI {\n    using StringLibrary for string;\n\n    //Token URI prefix\n    string public tokenURIPrefix;\n\n    // Optional mapping for token URIs\n    mapping(uint256 => string) private _tokenURIs;\n\n    constructor(string memory _tokenURIPrefix) public {\n        tokenURIPrefix = _tokenURIPrefix;\n    }\n\n    /**\n     * @dev Returns an URI for a given token ID.\n     * Throws if the token ID does not exist. May return an empty string.\n     * @param tokenId uint256 ID of the token to query\n     */\n    function _tokenURI(uint256 tokenId) internal view returns (string memory) {\n        return tokenURIPrefix.append(_tokenURIs[tokenId]);\n    }\n\n    /**\n     * @dev Internal function to set the token URI for a given token.\n     * Reverts if the token ID does not exist.\n     * @param tokenId uint256 ID of the token to set its URI\n     * @param uri string URI to assign\n     */\n    function _setTokenURI(uint256 tokenId, string memory uri) internal {\n        _tokenURIs[tokenId] = uri;\n    }\n\n    /**\n     * @dev Internal function to set the token URI prefix.\n     * @param _tokenURIPrefix string URI prefix to assign\n     */\n    function _setTokenURIPrefix(string memory _tokenURIPrefix) internal {\n        tokenURIPrefix = _tokenURIPrefix;\n    }\n\n    function _clearTokenURI(uint256 tokenId) internal {\n        if (bytes(_tokenURIs[tokenId]).length != 0) {\n            delete _tokenURIs[tokenId];\n        }\n    }\n}\n\n/*\n * @dev Provides information about the current execution context, including the\n * sender of the transaction and its data. While these are generally available\n * via msg.sender and msg.data, they should not be accessed in such a direct\n * manner, since when dealing with GSN meta-transactions the account sending and\n * paying for execution may not be the actual sender (as far as an application\n * is concerned).\n *\n * This contract is only required for intermediate, library-like contracts.\n */\ncontract Context {\n    // Empty internal constructor, to prevent people from mistakenly deploying\n    // an instance of this contract, which should be used via inheritance.\n    constructor () internal { }\n    // solhint-disable-previous-line no-empty-blocks\n\n    function _msgSender() internal view returns (address payable) {\n        return msg.sender;\n    }\n\n    function _msgData() internal view returns (bytes memory) {\n        this; // silence state mutability warning without generating bytecode - see https://github.com/ethereum/solidity/issues/2691\n        return msg.data;\n    }\n}\n\n/**\n * @dev Contract module which provides a basic access control mechanism, where\n * there is an account (an owner) that can be granted exclusive access to\n * specific functions.\n *\n * This module is used through inheritance. It will make available the modifier\n * `onlyOwner`, which can be applied to your functions to restrict their use to\n * the owner.\n */\ncontract Ownable is Context {\n    address private _owner;\n\n    event OwnershipTransferred(address indexed previousOwner, address indexed newOwner);\n\n    /**\n     * @dev Initializes the contract setting the deployer as the initial owner.\n     */\n    constructor () internal {\n        address msgSender = _msgSender();\n        _owner = msgSender;\n        emit OwnershipTransferred(address(0), msgSender);\n    }\n\n    /**\n     * @dev Returns the address of the current owner.\n     */\n    function owner() public view returns (address) {\n        return _owner;\n    }\n\n    /**\n     * @dev Throws if called by any account other than the owner.\n     */\n    modifier onlyOwner() {\n        require(isOwner(), \"Ownable: caller is not the owner\");\n        _;\n    }\n\n    /**\n     * @dev Returns true if the caller is the current owner.\n     */\n    function isOwner() public view returns (bool) {\n        return _msgSender() == _owner;\n    }\n\n    /**\n     * @dev Leaves the contract without owner. It will not be possible to call\n     * `onlyOwner` functions anymore. Can only be called by the current owner.\n     *\n     * NOTE: Renouncing ownership will leave the contract without an owner,\n     * thereby removing any functionality that is only available to the owner.\n     */\n    function renounceOwnership() public onlyOwner {\n        emit OwnershipTransferred(_owner, address(0));\n        _owner = address(0);\n    }\n\n    /**\n     * @dev Transfers ownership of the contract to a new account (`newOwner`).\n     * Can only be called by the current owner.\n     */\n    function transferOwnership(address newOwner) public onlyOwner {\n        _transferOwnership(newOwner);\n    }\n\n    /**\n     * @dev Transfers ownership of the contract to a new account (`newOwner`).\n     */\n    function _transferOwnership(address newOwner) internal {\n        require(newOwner != address(0), \"Ownable: new owner is the zero address\");\n        emit OwnershipTransferred(_owner, newOwner);\n        _owner = newOwner;\n    }\n}\n\n/**\n    Note: The ERC-165 identifier for this interface is 0x0e89341c.\n*/\ninterface IERC1155Metadata_URI {\n    /**\n        @notice A distinct Uniform Resource Identifier (URI) for a given token.\n        @dev URIs are defined in RFC 3986.\n        The URI may point to a JSON file that conforms to the \"ERC-1155 Metadata URI JSON Schema\".\n        @return URI string\n    */\n    function uri(uint256 _id) external view returns (string memory);\n}\n\n/**\n    Note: The ERC-165 identifier for this interface is 0x0e89341c.\n*/\ncontract ERC1155Metadata_URI is IERC1155Metadata_URI, HasTokenURI {\n\n    constructor(string memory _tokenURIPrefix) HasTokenURI(_tokenURIPrefix) public {\n\n    }\n\n    function uri(uint256 _id) external view returns (string memory) {\n        return _tokenURI(_id);\n    }\n}\n\ncontract HasSecondarySaleFees is ERC165 {\n\n    event SecondarySaleFees(uint256 tokenId, address[] recipients, uint[] bps);\n\n    /*\n     * bytes4(keccak256('getFeeBps(uint256)')) == 0x0ebd4c7f\n     * bytes4(keccak256('getFeeRecipients(uint256)')) == 0xb9c4d9fb\n     *\n     * => 0x0ebd4c7f ^ 0xb9c4d9fb == 0xb7799584\n     */\n    bytes4 private constant _INTERFACE_ID_FEES = 0xb7799584;\n\n    constructor() public {\n        _registerInterface(_INTERFACE_ID_FEES);\n    }\n\n    function getFeeRecipients(uint256 id) public view returns (address payable[] memory);\n    function getFeeBps(uint256 id) public view returns (uint[] memory);\n}\n\ncontract ERC1155Base is HasSecondarySaleFees, Ownable, ERC1155Metadata_URI, HasContractURI, ERC1155 {\n\n    struct Fee {\n        address payable recipient;\n        uint256 value;\n    }\n\n    // id => creator\n    mapping (uint256 => address) public creators;\n    // id => fees\n    mapping (uint256 => Fee[]) public fees;\n\n    constructor(string memory contractURI, string memory tokenURIPrefix) HasContractURI(contractURI) ERC1155Metadata_URI(tokenURIPrefix) public {\n\n    }\n\n    function getFeeRecipients(uint256 id) public view returns (address payable[] memory) {\n        Fee[] memory _fees = fees[id];\n        address payable[] memory result = new address payable[](_fees.length);\n        for (uint i = 0; i < _fees.length; i++) {\n            result[i] = _fees[i].recipient;\n        }\n        return result;\n    }\n\n    function getFeeBps(uint256 id) public view returns (uint[] memory) {\n        Fee[] memory _fees = fees[id];\n        uint[] memory result = new uint[](_fees.length);\n        for (uint i = 0; i < _fees.length; i++) {\n            result[i] = _fees[i].value;\n        }\n        return result;\n    }\n\n    // Creates a new token type and assings _initialSupply to minter\n    function _mint(uint256 _id, Fee[] memory _fees, uint256 _supply, string memory _uri) internal {\n        require(creators[_id] == address(0x0), \"Token is already minted\");\n        require(_supply != 0, \"Supply should be positive\");\n        require(bytes(_uri).length > 0, \"uri should be set\");\n\n        creators[_id] = msg.sender;\n        address[] memory recipients = new address[](_fees.length);\n        uint[] memory bps = new uint[](_fees.length);\n        for (uint i = 0; i < _fees.length; i++) {\n            require(_fees[i].recipient != address(0x0), \"Recipient should be present\");\n            require(_fees[i].value != 0, \"Fee value should be positive\");\n            fees[_id].push(_fees[i]);\n            recipients[i] = _fees[i].recipient;\n            bps[i] = _fees[i].value;\n        }\n        if (_fees.length > 0) {\n            emit SecondarySaleFees(_id, recipients, bps);\n        }\n        balances[_id][msg.sender] = _supply;\n        _setTokenURI(_id, _uri);\n\n        // Transfer event with mint semantic\n        emit TransferSingle(msg.sender, address(0x0), msg.sender, _id, _supply);\n        emit URI(_uri, _id);\n    }\n\n    function burn(address _owner, uint256 _id, uint256 _value) external {\n\n        require(_owner == msg.sender || operatorApproval[_owner][msg.sender] == true, \"Need operator approval for 3rd party burns.\");\n\n        // SafeMath will throw with insuficient funds _owner\n        // or if _id is not valid (balance will be 0)\n        balances[_id][_owner] = balances[_id][_owner].sub(_value);\n\n        // MUST emit event\n        emit TransferSingle(msg.sender, _owner, address(0x0), _id, _value);\n    }\n\n    /**\n     * @dev Internal function to set the token URI for a given token.\n     * Reverts if the token ID does not exist.\n     * @param tokenId uint256 ID of the token to set its URI\n     * @param uri string URI to assign\n     */\n    function _setTokenURI(uint256 tokenId, string memory uri) internal {\n        require(creators[tokenId] != address(0x0), \"_setTokenURI: Token should exist\");\n        super._setTokenURI(tokenId, uri);\n    }\n\n    function setTokenURIPrefix(string memory tokenURIPrefix) public onlyOwner {\n        _setTokenURIPrefix(tokenURIPrefix);\n    }\n\n    function setContractURI(string memory contractURI) public onlyOwner {\n        _setContractURI(contractURI);\n    }\n}\n\n/**\n * @title Roles\n * @dev Library for managing addresses assigned to a Role.\n */\nlibrary Roles {\n    struct Role {\n        mapping (address => bool) bearer;\n    }\n\n    /**\n     * @dev Give an account access to this role.\n     */\n    function add(Role storage role, address account) internal {\n        require(!has(role, account), \"Roles: account already has role\");\n        role.bearer[account] = true;\n    }\n\n    /**\n     * @dev Remove an account's access to this role.\n     */\n    function remove(Role storage role, address account) internal {\n        require(has(role, account), \"Roles: account does not have role\");\n        role.bearer[account] = false;\n    }\n\n    /**\n     * @dev Check if an account has this role.\n     * @return bool\n     */\n    function has(Role storage role, address account) internal view returns (bool) {\n        require(account != address(0), \"Roles: account is the zero address\");\n        return role.bearer[account];\n    }\n}\n\ncontract SignerRole is Context {\n    using Roles for Roles.Role;\n\n    event SignerAdded(address indexed account);\n    event SignerRemoved(address indexed account);\n\n    Roles.Role private _signers;\n\n    constructor () internal {\n        _addSigner(_msgSender());\n    }\n\n    modifier onlySigner() {\n        require(isSigner(_msgSender()), \"SignerRole: caller does not have the Signer role\");\n        _;\n    }\n\n    function isSigner(address account) public view returns (bool) {\n        return _signers.has(account);\n    }\n\n    function addSigner(address account) public onlySigner {\n        _addSigner(account);\n    }\n\n    function renounceSigner() public {\n        _removeSigner(_msgSender());\n    }\n\n    function _addSigner(address account) internal {\n        _signers.add(account);\n        emit SignerAdded(account);\n    }\n\n    function _removeSigner(address account) internal {\n        _signers.remove(account);\n        emit SignerRemoved(account);\n    }\n}\n\n\n\n\n\n\n\ncontract RaribleToken is Ownable, SignerRole, ERC1155Base {\n    string public name;\n    string public symbol;\n\n    constructor(string memory _name, string memory _symbol, address signer, string memory contractURI, string memory tokenURIPrefix) ERC1155Base(contractURI, tokenURIPrefix) public {\n        name = _name;\n        symbol = _symbol;\n\n        _addSigner(signer);\n        _registerInterface(bytes4(keccak256('MINT_WITH_ADDRESS')));\n    }\n\n    function addSigner(address account) public onlyOwner {\n        _addSigner(account);\n    }\n\n    function removeSigner(address account) public onlyOwner {\n        _removeSigner(account);\n    }\n\n    function mint(uint256 id, uint8 v, bytes32 r, bytes32 s, Fee[] memory fees, uint256 supply, string memory uri) public {\n        require(isSigner(ecrecover(keccak256(abi.encodePacked(this, id)), v, r, s)), \"signer should sign tokenId\");\n        _mint(id, fees, supply, uri);\n    }\n}",
  "sourcePath": "/Users/sterlinw/Documents/sandbox/nft/src/contracts/MusicToken.sol",
  "compiler": {
    "name": "solc",
    "version": "0.5.16+commit.9c3226ce.Emscripten.clang"
  },
  "schemaVersion": "3.3.3",
  "updatedAt": "2021-02-08T04:19:56.168Z",
  "devdoc": {
    "methods": {
      "balanceOf(address,uint256)": {
        "params": {
          "_id": "ID of the Token",
          "_owner": "The address of the token holder"
        },
        "return": "The _owner's balance of the Token type requested"
      },
      "balanceOfBatch(address[],uint256[])": {
        "params": {
          "_ids": "ID of the Tokens",
          "_owners": "The addresses of the token holders"
        },
        "return": "The _owner's balance of the Token types requested (i.e. balance for each (owner, id) pair)"
      },
      "isApprovedForAll(address,address)": {
        "params": {
          "_operator": "Address of authorized operator",
          "_owner": "The owner of the Tokens"
        },
        "return": "True if the operator is approved, false if not"
      },
      "isOwner()": {
        "details": "Returns true if the caller is the current owner."
      },
      "owner()": {
        "details": "Returns the address of the current owner."
      },
      "renounceOwnership()": {
        "details": "Leaves the contract without owner. It will not be possible to call `onlyOwner` functions anymore. Can only be called by the current owner.     * NOTE: Renouncing ownership will leave the contract without an owner, thereby removing any functionality that is only available to the owner."
      },
      "safeBatchTransferFrom(address,address,uint256[],uint256[],bytes)": {
        "details": "Caller must be approved to manage the tokens being transferred out of the `_from` account (see \"Approval\" section of the standard). MUST revert if `_to` is the zero address. MUST revert if length of `_ids` is not the same as length of `_values`. MUST revert if any of the balance(s) of the holder(s) for token(s) in `_ids` is lower than the respective amount(s) in `_values` sent to the recipient. MUST revert on any other error. MUST emit `TransferSingle` or `TransferBatch` event(s) such that all the balance changes are reflected (see \"Safe Transfer Rules\" section of the standard). Balance changes and events MUST follow the ordering of the arrays (_ids[0]/_values[0] before _ids[1]/_values[1], etc). After the above conditions for the transfer(s) in the batch are met, this function MUST check if `_to` is a smart contract (e.g. code size > 0). If so, it MUST call the relevant `ERC1155TokenReceiver` hook(s) on `_to` and act appropriately (see \"Safe Transfer Rules\" section of the standard).",
        "params": {
          "_data": "Additional data with no specified format, MUST be sent unaltered in call to the `ERC1155TokenReceiver` hook(s) on `_to`",
          "_from": "Source address",
          "_ids": "IDs of each token type (order and length must match _values array)",
          "_to": "Target address",
          "_values": "Transfer amounts per token type (order and length must match _ids array)"
        }
      },
      "safeTransferFrom(address,address,uint256,uint256,bytes)": {
        "details": "Caller must be approved to manage the tokens being transferred out of the `_from` account (see \"Approval\" section of the standard). MUST revert if `_to` is the zero address. MUST revert if balance of holder for token `_id` is lower than the `_value` sent. MUST revert on any other error. MUST emit the `TransferSingle` event to reflect the balance change (see \"Safe Transfer Rules\" section of the standard). After the above conditions are met, this function MUST check if `_to` is a smart contract (e.g. code size > 0). If so, it MUST call `onERC1155Received` on `_to` and act appropriately (see \"Safe Transfer Rules\" section of the standard).",
        "params": {
          "_data": "Additional data with no specified format, MUST be sent unaltered in call to `onERC1155Received` on `_to`",
          "_from": "Source address",
          "_id": "ID of the token type",
          "_to": "Target address",
          "_value": "Transfer amount"
        }
      },
      "setApprovalForAll(address,bool)": {
        "details": "MUST emit the ApprovalForAll event on success.",
        "params": {
          "_approved": "True if the operator is approved, false to revoke approval",
          "_operator": "Address to add to the set of authorized operators"
        }
      },
      "supportsInterface(bytes4)": {
        "details": "See {IERC165-supportsInterface}.     * Time complexity O(1), guaranteed to always use less than 30 000 gas."
      },
      "transferOwnership(address)": {
        "details": "Transfers ownership of the contract to a new account (`newOwner`). Can only be called by the current owner."
      }
    }
  },
  "userdoc": {
    "methods": {
      "balanceOf(address,uint256)": {
        "notice": "Get the balance of an account's Tokens."
      },
      "balanceOfBatch(address[],uint256[])": {
        "notice": "Get the balance of multiple account/token pairs"
      },
      "isApprovedForAll(address,address)": {
        "notice": "Queries the approval status of an operator for a given owner."
      },
      "safeBatchTransferFrom(address,address,uint256[],uint256[],bytes)": {
        "notice": "Transfers `_values` amount(s) of `_ids` from the `_from` address to the `_to` address specified (with safety call)."
      },
      "safeTransferFrom(address,address,uint256,uint256,bytes)": {
        "notice": "Transfers `_value` amount of an `_id` from the `_from` address to the `_to` address specified (with safety call)."
      },
      "setApprovalForAll(address,bool)": {
        "notice": "Enable or disable approval for a third party (\"operator\") to manage all of the caller's tokens."
      }
    }
  }
}